{
  "_format": "hh-sol-artifact-1",
  "contractName": "NFTMarket",
  "sourceName": "contracts/NFTMarket.sol",
  "abi": [
    {
      "inputs": [],
      "stateMutability": "nonpayable",
      "type": "constructor"
    },
    {
      "anonymous": false,
      "inputs": [
        {
          "indexed": true,
          "internalType": "uint256",
          "name": "itemId",
          "type": "uint256"
        },
        {
          "indexed": true,
          "internalType": "address",
          "name": "nftContract",
          "type": "address"
        },
        {
          "indexed": true,
          "internalType": "uint256",
          "name": "tokenId",
          "type": "uint256"
        },
        {
          "indexed": false,
          "internalType": "address",
          "name": "seller",
          "type": "address"
        },
        {
          "indexed": false,
          "internalType": "address",
          "name": "owner",
          "type": "address"
        },
        {
          "indexed": false,
          "internalType": "uint256",
          "name": "price",
          "type": "uint256"
        },
        {
          "indexed": false,
          "internalType": "bool",
          "name": "sold",
          "type": "bool"
        }
      ],
      "name": "MarketItemCreated",
      "type": "event"
    },
    {
      "inputs": [
        {
          "internalType": "address",
          "name": "nftContract",
          "type": "address"
        },
        {
          "internalType": "uint256",
          "name": "tokenId",
          "type": "uint256"
        },
        {
          "internalType": "uint256",
          "name": "price",
          "type": "uint256"
        }
      ],
      "name": "createMarketItem",
      "outputs": [],
      "stateMutability": "payable",
      "type": "function"
    },
    {
      "inputs": [
        {
          "internalType": "address",
          "name": "nftContract",
          "type": "address"
        },
        {
          "internalType": "uint256",
          "name": "itemId",
          "type": "uint256"
        }
      ],
      "name": "createMarketSale",
      "outputs": [],
      "stateMutability": "payable",
      "type": "function"
    },
    {
      "inputs": [],
      "name": "fetchItemsCreated",
      "outputs": [
        {
          "components": [
            {
              "internalType": "uint256",
              "name": "itemId",
              "type": "uint256"
            },
            {
              "internalType": "address",
              "name": "nftContract",
              "type": "address"
            },
            {
              "internalType": "uint256",
              "name": "tokenId",
              "type": "uint256"
            },
            {
              "internalType": "address payable",
              "name": "seller",
              "type": "address"
            },
            {
              "internalType": "address payable",
              "name": "owner",
              "type": "address"
            },
            {
              "internalType": "uint256",
              "name": "price",
              "type": "uint256"
            },
            {
              "internalType": "bool",
              "name": "sold",
              "type": "bool"
            }
          ],
          "internalType": "struct NFTMarket.MarketItem[]",
          "name": "",
          "type": "tuple[]"
        }
      ],
      "stateMutability": "view",
      "type": "function"
    },
    {
      "inputs": [],
      "name": "fetchMarketItems",
      "outputs": [
        {
          "components": [
            {
              "internalType": "uint256",
              "name": "itemId",
              "type": "uint256"
            },
            {
              "internalType": "address",
              "name": "nftContract",
              "type": "address"
            },
            {
              "internalType": "uint256",
              "name": "tokenId",
              "type": "uint256"
            },
            {
              "internalType": "address payable",
              "name": "seller",
              "type": "address"
            },
            {
              "internalType": "address payable",
              "name": "owner",
              "type": "address"
            },
            {
              "internalType": "uint256",
              "name": "price",
              "type": "uint256"
            },
            {
              "internalType": "bool",
              "name": "sold",
              "type": "bool"
            }
          ],
          "internalType": "struct NFTMarket.MarketItem[]",
          "name": "",
          "type": "tuple[]"
        }
      ],
      "stateMutability": "view",
      "type": "function"
    },
    {
      "inputs": [],
      "name": "fetchMyNFTs",
      "outputs": [
        {
          "components": [
            {
              "internalType": "uint256",
              "name": "itemId",
              "type": "uint256"
            },
            {
              "internalType": "address",
              "name": "nftContract",
              "type": "address"
            },
            {
              "internalType": "uint256",
              "name": "tokenId",
              "type": "uint256"
            },
            {
              "internalType": "address payable",
              "name": "seller",
              "type": "address"
            },
            {
              "internalType": "address payable",
              "name": "owner",
              "type": "address"
            },
            {
              "internalType": "uint256",
              "name": "price",
              "type": "uint256"
            },
            {
              "internalType": "bool",
              "name": "sold",
              "type": "bool"
            }
          ],
          "internalType": "struct NFTMarket.MarketItem[]",
          "name": "",
          "type": "tuple[]"
        }
      ],
      "stateMutability": "view",
      "type": "function"
    },
    {
      "inputs": [],
      "name": "getListingPrice",
      "outputs": [
        {
          "internalType": "uint256",
          "name": "",
          "type": "uint256"
        }
      ],
      "stateMutability": "view",
      "type": "function"
    }
  ],
  "bytecode": "0x608060405266354a6ba7a1800060045534801561001b57600080fd5b50600160008190555033600360006101000a81548173ffffffffffffffffffffffffffffffffffffffff021916908373ffffffffffffffffffffffffffffffffffffffff1602179055506118d3806100746000396000f3fe6080604052600436106100555760003560e01c80630f08efe01461005a57806312e8558514610085578063202e3740146100b057806358eb2df5146100db578063c23b139e146100f7578063f064c32e14610113575b600080fd5b34801561006657600080fd5b5061006f61013e565b60405161007c9190611380565b60405180910390f35b34801561009157600080fd5b5061009a61041d565b6040516100a791906113b1565b60405180910390f35b3480156100bc57600080fd5b506100c5610427565b6040516100d29190611380565b60405180910390f35b6100f560048036038101906100f09190611429565b610789565b005b610111600480360381019061010c919061147c565b610aed565b005b34801561011f57600080fd5b50610128610da6565b6040516101359190611380565b60405180910390f35b6060600061014c6001611108565b9050600061015a6002611108565b6101646001611108565b61016e91906114eb565b90506000808267ffffffffffffffff81111561018d5761018c61151f565b5b6040519080825280602002602001820160405280156101c657816020015b6101b361112c565b8152602001906001900390816101ab5790505b50905060005b8481101561041257600073ffffffffffffffffffffffffffffffffffffffff16600560006001846101fd919061154e565b815260200190815260200160002060040160009054906101000a900473ffffffffffffffffffffffffffffffffffffffff1673ffffffffffffffffffffffffffffffffffffffff1614156103ff5760006005600060018461025e919061154e565b81526020019081526020016000206000015490506000600560008381526020019081526020016000209050806040518060e0016040529081600082015481526020016001820160009054906101000a900473ffffffffffffffffffffffffffffffffffffffff1673ffffffffffffffffffffffffffffffffffffffff1673ffffffffffffffffffffffffffffffffffffffff168152602001600282015481526020016003820160009054906101000a900473ffffffffffffffffffffffffffffffffffffffff1673ffffffffffffffffffffffffffffffffffffffff1673ffffffffffffffffffffffffffffffffffffffff1681526020016004820160009054906101000a900473ffffffffffffffffffffffffffffffffffffffff1673ffffffffffffffffffffffffffffffffffffffff1673ffffffffffffffffffffffffffffffffffffffff168152602001600582015481526020016006820160009054906101000a900460ff1615151515815250508486815181106103e3576103e26115a4565b5b602002602001018190525084806103f9906115d3565b95505050505b808061040a906115d3565b9150506101cc565b508094505050505090565b6000600454905090565b606060006104356001611108565b905060008060005b838110156104dd573373ffffffffffffffffffffffffffffffffffffffff166005600060018461046d919061154e565b815260200190815260200160002060040160009054906101000a900473ffffffffffffffffffffffffffffffffffffffff1673ffffffffffffffffffffffffffffffffffffffff1614156104ca5782806104c6906115d3565b9350505b80806104d5906115d3565b91505061043d565b5060008267ffffffffffffffff8111156104fa576104f961151f565b5b60405190808252806020026020018201604052801561053357816020015b61052061112c565b8152602001906001900390816105185790505b50905060005b8481101561077e573373ffffffffffffffffffffffffffffffffffffffff1660056000600184610569919061154e565b815260200190815260200160002060040160009054906101000a900473ffffffffffffffffffffffffffffffffffffffff1673ffffffffffffffffffffffffffffffffffffffff16141561076b576000600560006001846105ca919061154e565b81526020019081526020016000206000015490506000600560008381526020019081526020016000209050806040518060e0016040529081600082015481526020016001820160009054906101000a900473ffffffffffffffffffffffffffffffffffffffff1673ffffffffffffffffffffffffffffffffffffffff1673ffffffffffffffffffffffffffffffffffffffff168152602001600282015481526020016003820160009054906101000a900473ffffffffffffffffffffffffffffffffffffffff1673ffffffffffffffffffffffffffffffffffffffff1673ffffffffffffffffffffffffffffffffffffffff1681526020016004820160009054906101000a900473ffffffffffffffffffffffffffffffffffffffff1673ffffffffffffffffffffffffffffffffffffffff1673ffffffffffffffffffffffffffffffffffffffff168152602001600582015481526020016006820160009054906101000a900460ff16151515158152505084868151811061074f5761074e6115a4565b5b60200260200101819052508480610765906115d3565b95505050505b8080610776906115d3565b915050610539565b508094505050505090565b600260005414156107cf576040517f08c379a00000000000000000000000000000000000000000000000000000000081526004016107c690611679565b60405180910390fd5b60026000819055506000811161081a576040517f08c379a0000000000000000000000000000000000000000000000000000000008152600401610811906116e5565b60405180910390fd5b600454341461085e576040517f08c379a000000000000000000000000000000000000000000000000000000000815260040161085590611751565b60405180910390fd5b6108686001611116565b60006108746001611108565b90506040518060e001604052808281526020018573ffffffffffffffffffffffffffffffffffffffff1681526020018481526020013373ffffffffffffffffffffffffffffffffffffffff168152602001600073ffffffffffffffffffffffffffffffffffffffff16815260200183815260200160001515815250600560008381526020019081526020016000206000820151816000015560208201518160010160006101000a81548173ffffffffffffffffffffffffffffffffffffffff021916908373ffffffffffffffffffffffffffffffffffffffff1602179055506040820151816002015560608201518160030160006101000a81548173ffffffffffffffffffffffffffffffffffffffff021916908373ffffffffffffffffffffffffffffffffffffffff16021790555060808201518160040160006101000a81548173ffffffffffffffffffffffffffffffffffffffff021916908373ffffffffffffffffffffffffffffffffffffffff16021790555060a0820151816005015560c08201518160060160006101000a81548160ff0219169083151502179055509050508373ffffffffffffffffffffffffffffffffffffffff166323b872dd3330866040518463ffffffff1660e01b8152600401610a5593929190611780565b600060405180830381600087803b158015610a6f57600080fd5b505af1158015610a83573d6000803e3d6000fd5b50505050828473ffffffffffffffffffffffffffffffffffffffff16827f045dfa01dcba2b36aba1d3dc4a874f4b0c5d2fbeb8d2c4b34a7d88c8d8f929d1336000876000604051610ad794939291906117c6565b60405180910390a4506001600081905550505050565b60026000541415610b33576040517f08c379a0000000000000000000000000000000000000000000000000000000008152600401610b2a90611679565b60405180910390fd5b6002600081905550600060056000838152602001908152602001600020600501549050600060056000848152602001908152602001600020600201549050813414610bb3576040517f08c379a0000000000000000000000000000000000000000000000000000000008152600401610baa9061187d565b60405180910390fd5b6005600084815260200190815260200160002060030160009054906101000a900473ffffffffffffffffffffffffffffffffffffffff1673ffffffffffffffffffffffffffffffffffffffff166108fc349081150290604051600060405180830381858888f19350505050158015610c2f573d6000803e3d6000fd5b508373ffffffffffffffffffffffffffffffffffffffff166323b872dd3033846040518463ffffffff1660e01b8152600401610c6d93929190611780565b600060405180830381600087803b158015610c8757600080fd5b505af1158015610c9b573d6000803e3d6000fd5b50505050336005600085815260200190815260200160002060040160006101000a81548173ffffffffffffffffffffffffffffffffffffffff021916908373ffffffffffffffffffffffffffffffffffffffff16021790555060016005600085815260200190815260200160002060060160006101000a81548160ff021916908315150217905550610d2d6002611116565b600360009054906101000a900473ffffffffffffffffffffffffffffffffffffffff1673ffffffffffffffffffffffffffffffffffffffff166108fc6004549081150290604051600060405180830381858888f19350505050158015610d97573d6000803e3d6000fd5b50505060016000819055505050565b60606000610db46001611108565b905060008060005b83811015610e5c573373ffffffffffffffffffffffffffffffffffffffff1660056000600184610dec919061154e565b815260200190815260200160002060030160009054906101000a900473ffffffffffffffffffffffffffffffffffffffff1673ffffffffffffffffffffffffffffffffffffffff161415610e49578280610e45906115d3565b9350505b8080610e54906115d3565b915050610dbc565b5060008267ffffffffffffffff811115610e7957610e7861151f565b5b604051908082528060200260200182016040528015610eb257816020015b610e9f61112c565b815260200190600190039081610e975790505b50905060005b848110156110fd573373ffffffffffffffffffffffffffffffffffffffff1660056000600184610ee8919061154e565b815260200190815260200160002060030160009054906101000a900473ffffffffffffffffffffffffffffffffffffffff1673ffffffffffffffffffffffffffffffffffffffff1614156110ea57600060056000600184610f49919061154e565b81526020019081526020016000206000015490506000600560008381526020019081526020016000209050806040518060e0016040529081600082015481526020016001820160009054906101000a900473ffffffffffffffffffffffffffffffffffffffff1673ffffffffffffffffffffffffffffffffffffffff1673ffffffffffffffffffffffffffffffffffffffff168152602001600282015481526020016003820160009054906101000a900473ffffffffffffffffffffffffffffffffffffffff1673ffffffffffffffffffffffffffffffffffffffff1673ffffffffffffffffffffffffffffffffffffffff1681526020016004820160009054906101000a900473ffffffffffffffffffffffffffffffffffffffff1673ffffffffffffffffffffffffffffffffffffffff1673ffffffffffffffffffffffffffffffffffffffff168152602001600582015481526020016006820160009054906101000a900460ff1615151515815250508486815181106110ce576110cd6115a4565b5b602002602001018190525084806110e4906115d3565b95505050505b80806110f5906115d3565b915050610eb8565b508094505050505090565b600081600001549050919050565b6001816000016000828254019250508190555050565b6040518060e0016040528060008152602001600073ffffffffffffffffffffffffffffffffffffffff16815260200160008152602001600073ffffffffffffffffffffffffffffffffffffffff168152602001600073ffffffffffffffffffffffffffffffffffffffff168152602001600081526020016000151581525090565b600081519050919050565b600082825260208201905092915050565b6000819050602082019050919050565b6000819050919050565b6111ec816111d9565b82525050565b600073ffffffffffffffffffffffffffffffffffffffff82169050919050565b600061121d826111f2565b9050919050565b61122d81611212565b82525050565b600061123e826111f2565b9050919050565b61124e81611233565b82525050565b60008115159050919050565b61126981611254565b82525050565b60e08201600082015161128560008501826111e3565b5060208201516112986020850182611224565b5060408201516112ab60408501826111e3565b5060608201516112be6060850182611245565b5060808201516112d16080850182611245565b5060a08201516112e460a08501826111e3565b5060c08201516112f760c0850182611260565b50505050565b6000611309838361126f565b60e08301905092915050565b6000602082019050919050565b600061132d826111ad565b61133781856111b8565b9350611342836111c9565b8060005b8381101561137357815161135a88826112fd565b975061136583611315565b925050600181019050611346565b5085935050505092915050565b6000602082019050818103600083015261139a8184611322565b905092915050565b6113ab816111d9565b82525050565b60006020820190506113c660008301846113a2565b92915050565b600080fd5b6113da81611212565b81146113e557600080fd5b50565b6000813590506113f7816113d1565b92915050565b611406816111d9565b811461141157600080fd5b50565b600081359050611423816113fd565b92915050565b600080600060608486031215611442576114416113cc565b5b6000611450868287016113e8565b935050602061146186828701611414565b925050604061147286828701611414565b9150509250925092565b60008060408385031215611493576114926113cc565b5b60006114a1858286016113e8565b92505060206114b285828601611414565b9150509250929050565b7f4e487b7100000000000000000000000000000000000000000000000000000000600052601160045260246000fd5b60006114f6826111d9565b9150611501836111d9565b925082821015611514576115136114bc565b5b828203905092915050565b7f4e487b7100000000000000000000000000000000000000000000000000000000600052604160045260246000fd5b6000611559826111d9565b9150611564836111d9565b9250827fffffffffffffffffffffffffffffffffffffffffffffffffffffffffffffffff03821115611599576115986114bc565b5b828201905092915050565b7f4e487b7100000000000000000000000000000000000000000000000000000000600052603260045260246000fd5b60006115de826111d9565b91507fffffffffffffffffffffffffffffffffffffffffffffffffffffffffffffffff821415611611576116106114bc565b5b600182019050919050565b600082825260208201905092915050565b7f5265656e7472616e637947756172643a207265656e7472616e742063616c6c00600082015250565b6000611663601f8361161c565b915061166e8261162d565b602082019050919050565b6000602082019050818103600083015261169281611656565b9050919050565b7f5072696365206d7573742062652067726561746572207468616e203120776569600082015250565b60006116cf60208361161c565b91506116da82611699565b602082019050919050565b600060208201905081810360008301526116fe816116c2565b9050919050565b7f5072696365206d757374206d61746368206c697374696e672070726963650000600082015250565b600061173b601e8361161c565b915061174682611705565b602082019050919050565b6000602082019050818103600083015261176a8161172e565b9050919050565b61177a81611212565b82525050565b60006060820190506117956000830186611771565b6117a26020830185611771565b6117af60408301846113a2565b949350505050565b6117c081611254565b82525050565b60006080820190506117db6000830187611771565b6117e86020830186611771565b6117f560408301856113a2565b61180260608301846117b7565b95945050505050565b7f506c65617365207375626d6974207468652061736b696e67207072696365206960008201527f6e206f7264657220746f20636f6d706c65746520746865207075726368617365602082015250565b600061186760408361161c565b91506118728261180b565b604082019050919050565b600060208201905081810360008301526118968161185a565b905091905056fea2646970667358221220672c162e9b0aca165b0a106c7fe6bfe7897dc7d8216975b35a5249441e9a4ae264736f6c63430008090033",
  "linkReferences": {},
  "deployedLinkReferences": {}
}